:100000000C94EF030C94E42E0C9427040C94270416
:100010000C9427040C9427040C9427040C942704B4
:100020000C9427040C9427040C94EF270C94AB2712
:100030000C9442290C9427040C9427040C94270454
:100040000C9427040C9427040C9427040C94270484
:100050000C9427040C941E290C9427040C94270458
:100060000C9427040C9427040C9427040C94270464
:100070000C9427040C9427040C9427040C94270454
:100080000C9427040C9427040C9427040C94270444
:100090000C9427040C9427040C9427040C94270434
:1000A0000C9427040C9427040C9427040631FF09B0
:1000B00074A1010975150026FF00952075088102BD
:1000C0000976150026FF00952075089102C00501EC
:1000D0000980A101850319012AB700150126B7007F
:1000E000950175108100C0050C0901A10185041955
:1000F000012AA002150126A002950175108100C0F9
:1001000005010906A101050719E029E715002501E8
:10011000950875018102950175088101050719008F
:1001200029FF150026FF00950675088100050819AE
:10013000012905950575019102950175039101C08D
:10014000726762206D617472697820746F67676C82
:1001500065205B25735D3A207267625F6D61747222
:1001600069785F636F6E6669672E656E61626C6544
:10017000203D2025750A0044454255473A206469D0
:100180007361626C65642E0A0044454255473A200B
:10019000656E61626C65642E0A004F6E6573686FF0
:1001A000743A206163746976653A2025640A000A0E
:1001B000002530325820006B6579626F6172645F90
:1001C0007265706F72743A200029001E001F0020B3
:1001D00000210022002B0014001A00090013000562
:1001E00000E00004001500160017000A00E1001DE1
:1001F000001B0006000700190000000000E30001DA
:10020000512C002C00A800270026002500240023E4
:1002100000390033001C0018000F000D00340012DC
:10022000000C0008001100100002513800370036A1
:10023000000B000E00000000002A00E60028002845
:100240000000503A003B003C003D003E002B000007
:1002500000000035022E022F00E000000000002404
:100260000231022F02E1000000000000002E0026F3
:100270000200000000E30000502C002C00AE004300
:10028000004200410040003F0000004500440035AE
:10029000002D00300000004F00520051005000308F
:1002A0000200503100000000002D02270200000073
:1002B000004C00E600035003500050000000000016
:1002C000000000000000000000000000000000A886
:1002D0000000000000CA5CC45CCC5CA90000000007
:1002E00000CB5CC35CCD5CAA0000000000000000F5
:1002F0005000000000C35C0000000000000000008F
:10030000000000C05CC25CC15C000000000000BFD7
:100310005CC65CC85C000000000050BE5CC75CC9E5
:100320005C00000000000000000000000000000071
:100330000029001E001F002000210022002B0014B5
:10034000001A00080015001700E00004001600075E
:100350000009000A00E1001D001B0006001900054D
:100360000000000000E30001512C002C00A8002731
:100370000026002500240023003900130012000C81
:100380000018001C00340033000F000E000D000B9D
:100390000000503800370036001000110000000047
:1003A000002A00E600280028005461726765742066
:1003B000636F6E6E65637465640D0A0054617267E5
:1003C000657420646973636F6E6E65637465642C15
:1003D000207468726F74746C696E6720636F6E6EE0
:1003E000656374696F6E20617474656D7074730DEC
:1003F0000A004661696C656420746F2065786563E6
:100400007574652025730A007267625F6D6174728E
:1004100069785F636F6E6669672E666C61677320CB
:100420003D2025640A007267625F6D6174726978AD
:100430005F636F6E6669672E7370656564203D202B
:1004400025640A007267625F6D61747269785F6328
:100450006F6E6669672E6873762E76203D20256460
:100460000A007267625F6D61747269785F636F6EB4
:100470006669672E6873762E73203D2025640A0016
:100480007267625F6D61747269785F636F6E6669CF
:10049000672E6873762E68203D2025640A007267F7
:1004A000625F6D61747269785F636F6E6669672EF3
:1004B0006D6F6465203D2025640A007267625F6D80
:1004C00061747269785F636F6E6669672E656E61CD
:1004D000626C65203D2025640A007267625F6D6171
:1004E000747269785F636F6E666967204545505224
:1004F0004F4D0A007267625F6D61747269785F695F
:100500006E69745F64726976657273207267625F88
:100510006D61747269785F636F6E6669672E6D6F67
:100520006465203D20302E20577269746520646513
:100530006661756C742076616C75657320746F20CC
:10054000454550524F4D2E0A007267625F6D6174CF
:100550007269785F696E69745F64726976657273D7
:10056000206565636F6E666967206973206E6F74BE
:1005700020656E61626C65642E0A005B735D000A23
:100580000025303862003A200025303258000A72C7
:100590002F632030313233343536370A000A0025D4
:1005A000303258006C65645F7461736B3A200000F0
:1005B0000101010101010101010202020202020224
:1005C00002020303030303030303040404040404F7
:1005D00004050505050506060606060707070707BD
:1005E00008080808090909090A0A0A0B0B0B0C0C70
:1005F0000C0D0D0D0E0E0E0F0F0F1010111111120C
:100600001213131414151516161717181819191A8A
:100610001A1B1B1C1D1D1E1E1F20202122222324ED
:1006200024252626272829292A2B2C2D2D2E2F302C
:10063000313232333435363738393A3B3C3D3E3F40
:10064000404142434445464748494A4C4D4E4F502D
:10065000515354555658595A5B5D5E5F61626465EB
:100660006668696B6C6D6F7072737577787A7B7D75
:100670007E8082838587888A8C8E8F9193959698C9
:100680009A9C9EA0A2A3A5A7A9ABADAFB1B3B5B7E5
:10069000BABCBEC0C2C4C6C9CBCDCFD1D4D6D8DBBC
:1006A000DDDFE2E4E7E9EBEEF0F3F5F8FAFDFF65F4
:1006B00065636F6E6669675F7570646174655F72AC
:1006C00067625F6D61747269785F64656661756C9D
:1006D000740A005B435D005B445D005B535D005B3F
:1006E000575D005B525D0009025B00030100A0FA48
:1006F0000904000001030101000921110100012288
:1007000040000705810308000109040100010300FE
:100710000000092111010001223200070582032097
:100720000001090402000203000000092111010078
:10073000012222000705830320000107050303208F
:100740000001120100020000000810CB56720007E1
:1007500001020001180349007200690073002000C3
:100760005200650076002E002000370000000E03C6
:100770004B0065006500620069006F000000040323
:100780000904726762206D61747269782073657400
:10079000207370656564205B25735D3A2025750ABA
:1007A00000726762206D61747269782073657420CD
:1007B000687376205B25735D3A2025752C25752C92
:1007C00025750A00726762206D6174726978206D08
:1007D0006F6465205B25735D3A2025750A0011243E
:1007E0001FBECFEFDAE0DEBFCDBF04B603FE18C0F8
:1007F0008091310590913205A0913305B091340577
:100800008730904BA740B04B59F4109231051092AD
:1008100032051092330510923405E0E0F8E30995B3
:1008200012E0A0E0B1E0E6EAF2E602C005900D9227
:10083000A63FB107D9F725E0A6EFB2E001C01D92AF
:10084000A133B207E1F70E9469290C941A310C9484
:100850000000FF93EF93E091F602F091F7023097DA
:1008600009F00995EF91FF910895FC018591803081
:1008700011F0EFDFFBCF0895FF27E0E230E247FF02
:100880000CC0419597FF09C0EDE260957095809589
:100890009095611D711D811D911D27FF02C021953D
:1008A00030E350E2AA27660F771F881F991FAA1FFF
:1008B000A41710F0A41B63955A95A9F7AA3008F065
:1008C000A95FA05DAF93F395611571058105910551
:1008D00041F7ED3211F4EF93F395F21718F43F93CB
:1008E000F395FBCF8F91B5DFFA95E1F70895E99184
:1008F000F9918591803021F0853219F0AADFF9CF86
:10090000089520E0E89455915532C1F3503311F425
:10091000689455915A3348F4505390F3220F022EA5
:10092000220F220F200D250FF4CF0EF4219589916F
:100930009991533619F3533729F1533559F1BC01C5
:1009400088279927E8945C3621F4899199916894D5
:100950005591543639F446EF7EF077FF0DC08FEF96
:100960009FEF0AC055374AE039F0583540E121F091
:10097000523642E009F00895FF93EF937DDFEF9147
:10098000FF91B7CFFF93EF93FC0181918030B9F3D2
:1009900060DFFBCFFF93EF9368DFF1CFDF93CF935F
:1009A000CDB7DEB72596A3DFCF91DF910895E8EDAF
:1009B000F0E080818E7F80831092E2001092DA0056
:1009C0001092E100A0EEB0E08C9181608C93808168
:1009D0008F77808319BCA7EDB0E08C918E7F8C93CC
:1009E00080818F7E80831092E00408952091E4003E
:1009F0003091E50095E6A9012091EC00822F8170ED
:100A000020FF06C08091E80080FF06C080E00895C6
:100A10002091E80022FD1AC08091ED04882389F01E
:100A2000853089F08091EB0085FD0FC02091E400B6
:100A30003091E50042175307F9F29150E1F684E056
:100A4000089582E0089583E0089581E00895EF928B
:100A5000FF920F931F93CF937C018B010E94F604AA
:100A6000C82F811117C08091E80085FD0BC08091CF
:100A7000E8008E778093E8000E94F604882399F3BB
:100A8000C82F08C0F70181917F018093F1000150C8
:100A9000110949F78C2FCF911F910F91FF90EF9083
:100AA00008958091EF0487FF13C08091E80082FFD2
:100AB00006C08091E8008B778093E80004C08091A5
:100AC000ED048111F2CF08958091ED048823D9F3CC
:100AD0008091E80080FFF8CF8091E8008E77ECCF1E
:100AE000982F9093E900242F762F50E0891731F04A
:100AF0007091EC002091ED005091F00021FD07C0B5
:100B00009F5F973071F78093E90081E008953091FD
:100B1000EB003E7F3093EB003091ED003D7F309352
:100B2000ED003091EB0031603093EB007093EC00FE
:100B30002093ED005093F0002091EE0027FDE0CFD0
:100B400080E00895B0E0A0E0E8EAF5E00C940A3017
:100B5000C8EDD0E088818F7E8883E7EDF0E080816A
:100B60008160808384E082BF81E08093E00488819B
:100B70008E7F888302EE10E0F80110821092DA0076
:100B800081EEC82ED12CF601108288818F77888360
:100B900088818068888388818F7D888319BC1092C2
:100BA000ED041092EE041092EC041092EB0490EE1F
:100BB000E92EF12CF70180818B7F80838881816011
:100BC000888342E060E080E00E947005F601808149
:100BD0008E7F8083F801808181608083808188603E
:100BE0008083F70180818E7F808388818061888304
:100BF000CDB7DEB7E8E00C942630FC018091F50417
:100C00009091F60486179707A0F06115710529F4F5
:100C10009091E8009E779093E80090E0611571054F
:100C200051F4911108C08091E80082FF34C080E047
:100C30000895BC01F2CF8091ED048823C1F1853085
:100C4000C1F18091E80083FD30C08091E80082FD11
:100C5000EACF8091E80080FFE1CF8091F3002091FE
:100C6000F200382F6115710519F02830310558F060
:100C700091E02830310509F090E02091E8002E77CE
:100C80002093E800CBCF81918093F10061507109EE
:100C90002F5F3F4FE7CF8091ED04882341F08530EF
:100CA00041F08091E80083FFBECF81E0089582E0AB
:100CB000089583E00895089508958091E2040895C9
:100CC0009C014FB7F8948091D6049091D704A091DD
:100CD000D804B091D9044FBF821B930B08952FB74E
:100CE000F8946091D6047091D7048091D8049091C3
:100CF000D9042FBF08952FB7F8948091D60490910E
:100D0000D704A091D804B091D9042FBF08959C01B5
:100D1000FC0132969FEF80E04191461751F09F3FD2
:100D200019F4411101C0982F8F5F8630A9F79F3FBA
:100D300009F40895290F311D97FD3A95F901628351
:100D400008952091D3043091D4042817390771F005
:100D50009093D4048093D304E091D104F091D20411
:100D6000309721F00084F185E02D099508952091B8
:100D7000CF043091D0042817390771F09093D00434
:100D80008093CF04E091D104F091D204309721F008
:100D90000680F781E02D09950895FC01680F791F01
:100DA0008FEF91E32191822728E030E087FF09C08F
:100DB000880F892721503109C9F7E617F70791F7FE
:100DC0000895880FF7CFFA01811101C0FB01099541
:100DD000089580934D0180912B05837080934C0181
:100DE0000E94A81483E0809352010895EF92FF922D
:100DF0000F939701201B31092F3F310519F010F097
:100E00002FEF30E0322F3095482F430F08F44FEF8B
:100E1000842F620F0F91FF90EF900895EF92FF9251
:100E20000F93972F093438F4B701601B71096F3F96
:100E3000710519F010F06FEF70E0485F5F4F4131BE
:100E4000510540F0A901485F5F4F4131510510F055
:100E50006FEF70E06095482F460F08F44FEF842F36
:100E600037FF02C02D5F3F4F359527953595279564
:100E700060912C05620F792F0F91FF90EF900895EC
:100E8000EF92FF920F931F930E0D1F2D111DF9016D
:100E900037FF03C0F195E195F10924E0EE0FFF1F44
:100EA0002A95E1F7EF3FF10519F014F0EFEFF0E0CC
:100EB0009A0157FF03C031952195310994E0220F23
:100EC000331F9A95E1F72E173F070CF4F901E00F55
:100ED000F11FEF3FF10519F010F0EFEFF0E0E095B2
:100EE000282F3E2F230F08F42FEF822F1F910F91F1
:100EF000FF90EF900895EF92FF920F93970195E086
:100F0000099F200D311D11242F3F310519F010F0DC
:100F10002FEF30E02095382F320F08F43FEF832F6A
:100F20000F91FF90EF90089522E8241B08F420E031
:100F3000620F08954095282F429F412D1124842F40
:100F400008950F931F9310E0F801EE0FFF1FE75D68
:100F5000FD4F9081905797FD9195000F111FF8015B
:100F6000E351FE4F05AD0052110B2003F001219F0C
:100F7000F00D112408E310E0091B110997FD1395EA
:100F800040039001419F300D1124E20FF31F9F0198
:100F9000220F331F2E0F3F1F37FF02C021583F4F34
:100FA000220F232F221F330B620F1F910F910895E1
:100FB0000F931F93522F10E0F801EE0FFF1FE35124
:100FC000FE4FA5ADA052BB0B9D015203F001539FF4
:100FD000F00D1124000F111FD801A75DBD4F0C911A
:100FE0000057110B40039001419F300D11242E0F2B
:100FF0003F1F37FF02C0215C3F4F96E03595279594
:101000009A95E1F7620F1F910F9108950F931F9327
:10101000522F10E0F801EE0FFF1FE351FE4FA5AD78
:10102000A052BB0B9D015203F001539FF00D112400
:10103000000F111FD801A75DBD4F0C910057110B78
:1010400040039001419F300D11242E0F3F1F37FFA9
:1010500002C021583F4F220F232F221F330B620F54
:101060001F910F910895EF920F93972F23E0029F06
:10107000B0011124759567956E0D792F0F91EF9042
:101080000895322F50E0FA01EE0FFF1FE351FE4F9B
:1010900095AD905297FD9195440F551FFA01E75D6C
:1010A000FD4F2081231B330B290F311D97FD3A95EE
:1010B000620F0895E42FF0E0EE0FFF1FE351FE4FA3
:1010C00065AD621B0895E42FF0E0EE0FFF1FE75DB2
:1010D000FD4F6081621B0895622F0895E42FF0E0B8
:1010E000EE0FFF1FE75DFD4F408134EE439F412D22
:1010F0001124E82FF0E050E0445E5F4FDA01A21BBC
:10110000B1099D01B7FF03C031952195310993E0E5
:10111000220F331F9A95E1F7AF01421B530B9A013F
:1011200057FD20E0582F259F212D1124822F08954F
:10113000E42FF0E0EE0FFF1FE75DFD4F408134EE3E
:10114000439F412D1124E72FF0E050E0445E5F4FB4
:10115000DA01A21BB1099D01B7FF03C031952195AA
:10116000310993E0220F331F9A95E1F7AF01421B3B
:10117000530B9A0157FD20E0279F212D1124722F38
:1011800008950E94C30A0895FF920F931F93CF936F
:10119000DF93182F062FF42ED0E0C0E02F2D402F24
:1011A000612FCE010E94C1082196C434D105B1F748
:1011B000CDB7DEB7E5E00C942930FC019B01009728
:1011C00029F480E077FF2BC080E80895AC0197FFF9
:1011D00004C044275527481B590BB901640F751FDC
:1011E00037FD10C0241B350BC901A5E0880F991FDE
:1011F000AA95E1F70E94573080E2861BF7FF0FC0E7
:1012000081950895CB0165E0880F991F6A95E1F7F4
:10121000BA01621B730B0E94573080E6EECF08952F
:10122000EF920F93CF93DF93D72FC82FC9010E19D9
:10123000BA010E94DD08602F681B7D2F8C2FDF9183
:10124000CF910F91EF9008950F93CF93DF93D72F06
:10125000C82FC901BA010E94DD08682F600F7D2FD9
:101260008C2FDF91CF910F910895EF920F931F93E1
:10127000CF93DF93D62FC72F182FC9010E19010F57
:10128000BA010E94DD08081B202F219F212D112467
:10129000822F6D2F7C2FDF91CF911F910F91EF90B7
:1012A0000895EF920F931F93CF93DF93D62F172FAD
:1012B000C82FC9010E19070FBA010E94DD08702F4F
:1012C000781B719F712D11246D2F8C2FDF91CF9181
:1012D0001F910F91EF9008950F931F93CF93DF937A
:1012E000D62FC72F182FC901212F201B022FBA017B
:1012F0000E94DD08982F990F990F891B800F282FC6
:10130000219F212D1124822F6D2F7C2FDF91CF91D2
:101310001F910F9108950F931F93CF93DF93D62FB3
:10132000172FC82FC901272F201B022FBA010E9497
:10133000DD08982F990F990F782F791B700F719FE7
:10134000712D11246D2F8C2FDF91CF911F910F9153
:101350000895E82F86FDE0952E2F2F7086FD2F5FD4
:10136000E695E695E695E670F0E0EA52FE4F91814B
:10137000929F902D212D112492959F702295207F70
:10138000922B2081920F87FD919580E8890F089517
:10139000AC018230910508F408959FEF413E8EE143
:1013A000580740F49A0195E0369527959A95E1F70C
:1013B00098E0920F61E0E62FE90FFF27FF1F9F01E2
:1013C00035952795822F229FF001239FF00DF00D78
:1013D00011244E175F0738F49FEF920F961758F7B6
:1013E0008FEF860F08952F3FE9F361E0620FF6CF8C
:1013F0000F93CF93DF93D72FC82F47FD419588E3F5
:1014000090E0841B910947FD9395889FB001899FC7
:10141000700D700D1124229FC001239F900D900D1F
:101420001124860F971F0E94C809982F990F890FC2
:10143000682F600F7D2F8C2FDF91CF910F91089532
:1014400030E020E0869F212D969F200D311D112434
:10145000C9010895AF92BF92CF92DF92FF920F938E
:101460001F93CF93DF93362F472FE82FF0E0E155FE
:10147000FA4F71110FC0E4918E2F2E2F6E2F722F05
:10148000DF91CF911F910F91FF90DF90CF90BF9090
:10149000AF900895C72FD0E02491F22E022F10E0D4
:1014A00056E0659FC0011124EFEFF0E0BF010E94FC
:1014B0004330832F90E0880F991F35E5369FD00188
:1014C000379FB00D11248A1B9B0B982F990F980FF3
:1014D0006F01CC1ADD0AC09ED001C19EB00DD09E16
:1014E000B00D11248B2F499FA0011124452F5527A2
:1014F0006F01C41AD50AC09EA001C19E500DD09E96
:10150000500D11245F01A91AB108AC9E6001AD9E77
:10151000D00CBC9ED00C1124CD2CDD24EC19FD097F
:10152000E09FE001E19FD00DF09FD00D1124ED2F41
:1015300062307105A1F050F46115710509F49ECF78
:101540006130710581F0EB2F852F98CF64307105E4
:1015500069F080F06630710509F490CFF4CFE22F86
:101560002B2F8D2F8BCFE22F252F88CFEB2F822F84
:101570002D2F84CF2B2F8F2DE52F80CF89B185FB89
:10158000882780F90895FF920F931F93CF93DF93DD
:10159000EC01F62E042F122F0E94BE0A81110FC0FB
:1015A000C232D1057CF0A297FE01EE0FFF1FEC0FB7
:1015B000FD1FED5FFB4FF1820083128303C0C23237
:1015C000D10594F3CDB7DEB7E5E00C942930CF9385
:1015D000C82F0E94BE0A882329F081E0C23228F079
:1015E00080E003C081E0C434D8F7CF910895A8E02B
:1015F000B0E0EDEFFAE00C940030282E7C836B8392
:1016000020914F018EE0289F802D11248D83825FD1
:101610008983853410F034E439830E94BE0A88231C
:1016200029F08981833210F092E299830E94BE0AE8
:10163000811105C0ED81E23210F4F2E2FD832091C8
:10164000FB042A839D81892F90E098878F83880FE0
:10165000991FFC01E351FE4F6F01822D90E09C0128
:101660002F5F3F4F3E832D8389819F81981730F0F4
:101670000E94E70A2896E2E10C941C30EF81F8857D
:10168000EF54FD4F8081909150018923F9F0309003
:101690002C0540902D058D819E8185509B4F3C01EE
:1016A000522C10E0FA815F16D8F020912E05129F7F
:1016B000112D1124632D742D812F0E942A0A462F8B
:1016C000282F672F8F8198850E94C1082F81388528
:1016D0002F5F3F4F38872F8332E0C30ED11CC4CF1A
:1016E000F30181913F01F601A4ACA81ABB0885ACB7
:1016F000F3018781881A9908AA9C9001AB9C300D50
:10170000300D1124889CC001899C900D900D1124EE
:10171000820F931F0E94C809082F60912F0521E0B6
:10172000620F08F46FEFF301EE0FFF1FEB5FF44061
:10173000858996890E94200A7C019401A501632D68
:10174000742D812FEB81FC810995362E472E539401
:10175000182FA8CFB0E0A0E0E0EBFBE00C940A303B
:101760007C01C0914F018EE0C89FC02D11241EE066
:101770001C0F153408F014E40E94BE0A882319F0E7
:10178000133208F012E20E94BE0A811103C0C23275
:1017900008F4C2E220912F0531E0230F08F42FEF67
:1017A00030E050E040E06FEF7FEF80E090E00E949B
:1017B0006B306901D0E001E02C2FC11740F0812F80
:1017C0000E94E70ACDB7DEB7E8E00C942630FE01B0
:1017D000EF54FD4F808190915001892309F1409190
:1017E000FB044150042E000C550B47FF1BC0C601E3
:1017F00060912F05600F08F46FEF0E94200AAC0182
:1018000060912C0570912D0580912E05F7010995A9
:101810000E942A0A462F282F672FCE010E94C10856
:101820002196CACFFA01E550FB4F818982130AC085
:10183000FA01EE0FFF1FE550FB4F818D928D8C1545
:101840009D05B0F241505109D0CFB0E0A0E0EBE2ED
:10185000FCE00C9408306C01C0914F018EE0C89FF1
:10186000C02D11241EE01C0F153408F014E40E9452
:10187000BE0A882319F0133208F012E20E94BE0A51
:10188000811103C0C23208F4C2E260912F0566954F
:1018900066958091F7049091F8040E94200AF82E32
:1018A00080E48F0D0E94A90990E8B92EB80E8F2D03
:1018B0000E94A90920E8A22EA80ED0E0C11740F08E
:1018C000812F0E94E70ACDB7DEB7EAE00C942430FE
:1018D000FE01EF54FD4F8081909150018923A1F0CA
:1018E00060912C0570912D0580912E05EF2C0C2F09
:1018F0002A2D4B2DF60109950E942A0A462F282FE2
:10190000672FCE010E94C1082196D8CFB0E0A0E099
:10191000ECE8FCE00C9404305C01C0914F018EE0D7
:10192000C89FC02D11241EE01C0F153408F014E4CC
:101930000E94BE0A882319F0133208F012E20E94B6
:10194000BE0A811103C0C23208F4C2E260912F05C1
:1019500066958091F7049091F8040E94200AF82E71
:10196000D0E0CE01880F991F9C0123513E4F6901A1
:10197000C11740F0812F0E94E70ACDB7DEB7EEE035
:101980000C942030FE01EF54FD4F80819091500166
:10199000892379F1F60184AD282F2057330B4901B3
:1019A00085ADE82FE052FF0B3F01889C9001899C98
:1019B000300D300D1124EE9FC001EF9F900D900D62
:1019C0001124820F931F0E94C809082F60912C05D3
:1019D00070912D0580912E05EF2C9301A401F50146
:1019E00009950E942A0A462F282F672FCE010E94B0
:1019F000C108F2E0CF0ED11C2196BACFB0E0A0E032
:101A0000E4E0FDE00C9409306C01C0914F018EE0E0
:101A1000C89FC02D11241EE01C0F153408F014E4DB
:101A20000E94BE0A882319F0133208F012E20E94C5
:101A3000BE0A811103C0C23208F4C2E260912F05D0
:101A400066958091F7049091F8040E94200AB82EC0
:101A5000D0E0CE01880F991F9C0123513E4F7901A0
:101A6000C11740F0812F0E94E70ACDB7DEB7E9E049
:101A70000C942530FE01EF54FD4F80819091500170
:101A80008923C1F0F70125AD2052330B44AD4057F7
:101A9000550B60912C0570912D0580912E050B2D15
:101AA000F60109950E942A0A462F282F672FCE019A
:101AB0000E94C108F2E0EF0EF11C2196D1CFEF9207
:101AC000FF920F931F93CF93DF937C01C0914F013F
:101AD0008EE0C89FC02D11241EE01C0F153408F0A5
:101AE00014E40E94BE0A882319F0133208F012E2AF
:101AF0000E94BE0A811103C0C23208F4C2E26091A2
:101B00002F056695669521E0620F08F46FEF8091CE
:101B1000F7049091F8040E94200A082FD0E0C11722
:101B200040F0812F0E94E70ACDB7DEB7E6E00C94C3
:101B30002830FE01EF54FD4F8081909150018923A0
:101B400091F060912C0570912D0580912E05202F2C
:101B50004C2FF70109950E942A0A462F282F672F3C
:101B6000CE010E94C1082196DACFB0E0A0E0EBEBF5
:101B7000FDE00C940830182F80914D01811323C093
:101B800090912B05937020914C0130E081E09217E9
:101B9000130609F480E08170809351018091300533
:101BA00090915001981739F08093500140E060E027
:101BB00080E00E94C408113288F4E12FF0E0E45E76
:101BC000FE4C0C948A3081E0E6CF8091510188234D
:101BD00089F140E060E080E00E94C40880E02AC013
:101BE000C0914F018EE0C89FC02D11240EE00C0F54
:101BF000053408F004E40E94BE0A882319F0033279
:101C000008F002E20E94BE0A811103C0C23208F449
:101C1000C2E260912C0570912D0580912E050E94E5
:101C20002A0AF62EE72ED82ED0E0C017D8F0802F43
:101C30000E94E70A90914F019F5F90934F0181119D
:101C40000CC082E08093520180915101811105C046
:101C5000111103C083E080935201CDB7DEB7EAE0F3
:101C60000C942430FE01EF54FD4F8081909150017F
:101C7000892331F02D2D4F2D6E2DCE010E94C108EC
:101C80002196D3CFC0914F018EE0C89FC02D112463
:101C90000EE00C0F053408F004E40E94BE0A88230D
:101CA00019F0033208F002E20E94BE0A811103C05B
:101CB000C23208F4C2E2E0902D05F0902E05D091DA
:101CC0002C056D2F7E2D8F2D0E942A0AD62EC72E11
:101CD000B82E60912F056D0F7E2D8F2D0E942A0A40
:101CE000F62EE72EA82ED0E0C01708F0A0CFFE01F8
:101CF000EF54FD4F908180915001892359F02A2D96
:101D00004F2D6E2D90FD03C02B2D4D2D6C2DCE0132
:101D10000E94C1082196E8CFC0914F018EE0C89F74
:101D2000C02D11240EE00C0F053408F004E40E94CD
:101D3000BE0A882319F0033208F002E20E94BE0AAC
:101D4000811103C0C23208F4C2E2E0902D05D090A8
:101D50002E0520912F0550E4F52E3F2D329F312D79
:101D60001124F32ED0E0C01708F061CFFE01EF542C
:101D7000FD4F8081909150018923B9F0FE01EE0F53
:101D8000FF1FE351FE4F85AD82958F7060912C054A
:101D90008F9D600D11247E2D8D2D0E942A0A462FC5
:101DA000282F672FCE010E94C1082196DCCFC09159
:101DB0004F018EE0C89FC02D11240EE00C0F05349A
:101DC00008F004E40E94BE0A882319F0033208F0E8
:101DD00002E20E94BE0A811103C0C23208F4C2E2CC
:101DE000E0902D05D0902E0520912F0530E4F32EA4
:101DF0003F2D329F312D1124F32ED0E0C01708F073
:101E000016CFFE01EF54FD4F808190915001892340
:101E1000D9F0FE01EE0FFF1FE351FE4F64ADF69EB9
:101E2000B001112495E0759567959A95E1F7809139
:101E30002C05680F7E2D8D2D0E942A0A462F282FF3
:101E4000672FCE010E94C1082196D8CFC0914F01C3
:101E50008EE0C89FC02D11240EE00C0F053408F051
:101E600004E40E94BE0A882319F0033208F002E25B
:101E70000E94BE0A811103C0C23208F4C2E2F0908F
:101E80002C05D0912D05E0902E0560912F056695CB
:101E9000669566958091F7049091F8040E94200A57
:101EA0000E94A909805887FD8195880F282F3E2D13
:101EB000239F212D1124822F6F2D7D2F0E942A0A0E
:101EC000F62EE72ED82ED0E0C01708F0B0CEFE01D7
:101ED000EF54FD4F808190915001892331F02D2DD9
:101EE0004F2D6E2DCE010E94C1082196EDCF88E9BD
:101EF00098E00E945F0D9ECE8EE698E0FACF8BE8C8
:101F000099E00E94FE0C96CE8CE699E0FACF81E52E
:101F100099E00E94860C8ECE85E399E0FACF8CE69C
:101F200098E0E7CF83E698E0E4CF8AE598E0E1CF58
:101F300081E498E0DECF83E398E0EBCF88EF99E08F
:101F4000E0CF84E299E0DDCF80E199E0E2CF86E066
:101F500098E00E94250C6ECE88ED97E0FACF81EADA
:101F600097E0F7CF8AE997E00E94AA0B63CE84E955
:101F700097E0FACF8091FB0421E0382F321B08F460
:101F800030E0832F6BE777E00E94F70A53CE6BE7D0
:101F900077E080E0F9CF8091FB0421E0382F321BFD
:101FA00008F430E0832F60E477E0EECF60E477E080
:101FB000F0CF8091FB0421E0382F321B08F430E091
:101FC000832F6EE077E0E0CF6EE077E0E2CF8091A4
:101FD000FB0421E0382F321B08F430E0832F66EF3A
:101FE00076E0D2CF66EF76E0D4CFF894E82FE29592
:101FF000EF70F0E031A1282F2F7081E090E001C058
:10200000880F2A95EAF7982F9095932391A392A190
:10201000892B82A3789408959091AC0392FF06C017
:10202000282F28712830F9F4877F846093FF06C039
:10203000282F28712831F1F4877E84612091AD0327
:1020400020FF06C0382F38713830D9F4877F81607F
:1020500021FF06C0282F28712831D1F4877E8161A5
:1020600094FD877E0895282F24712430F9F68B7F04
:102070008860DCCF282F2471243101F78B7E8861A2
:10208000DDCF382F3171313019F78E7F8860E0CF86
:10209000282F2171213121F78E7E8861E1CF972F82
:1020A0007A30A8F4663098F470E026E0929F600DD4
:1020B000711D1124FB019CE3899FE00DF11D11248A
:1020C000EE0FFF1FE753FE4F85919491089580E036
:1020D00090E00895CF93DF93EC0182389105B1F140
:1020E00008F040C08133910509F49DC048F589325C
:1020F000910509F48DC08A9709F49CC0C11522E5A9
:10210000D20708F0BDC0C11531E5D30708F024C1DE
:10211000C83ED10508F0A3C0C13ED10588F5C83A34
:10212000D10508F08EC0C53AD10508F0F6C0C1301F
:10213000D10531F1209721F1C430D10508F545C012
:102140008533910509F45FC0C997C1F68091AC034E
:10215000837009F036C18091AD0383FF11C0C9E2DD
:10216000D0E00EC0833E910599F170F4803E910558
:1021700001F1823E910511F68091AC0382FD21C0F0
:10218000CE01DF91CF910895863E910561F1873EA2
:10219000910571F1843E910509F0B0CF8091AD03B6
:1021A00081FFEECF8091AC03C7EED0E084FD0DC07F
:1021B000E7CF8091AC0380FD33C09091AD0390FFD9
:1021C000DFCFC3EED0E084FFDBCFD0E0C0E0D8CFDC
:1021D0008091AC0382FDF2C09091AD0390FDF1C0FF
:1021E00084FFCECFF2CF8091AC0383FDDDCFC8CF8B
:1021F0008091AC0383FDE8C09091AD0391FFF0CFD7
:10220000C4EED0E0BDCF8091AC0385FFB9CFA7CF9E
:102210008091AC0385FDDBC08091AD0383FFB0CF1F
:10222000C9E3D0E0ADCF8091AC0386FFA9CFCAE26D
:10223000D0E0A6CF8091AC0386FFA2CFC1E3D0E06F
:102240009FCFCF3BD10508F6C85AD0E0CC0FDD1F99
:10225000CA56DE4F0990D881C02DD46491CFC115E4
:1022600040E5D40708F064C0C11580E4D80708F041
:102270005CC0CE019A9581159F4108F481CFA5CF0E
:10228000C11536E5D30718F5C11545E5D40708F0A3
:102290007CC0C11584E5D80708F072C09E01237088
:1022A00033279C2F96959695C115D34508F459C0B0
:1022B000C1E0D0E002C0CC0FDD1F2A95E2F730E28A
:1022C000939FC0011124C82BD92BDA6859CFC115AF
:1022D0008AE5D80778F4C11529E5D20708F060C06F
:1022E000C11538E5D30708F470CFDC2FCC27C06FB9
:1022F000D06A46CFCE0190568115904208F065CF46
:102300008D2F8F710E940C1090E0982F88278827BE
:102310009F719C012C2BE90141C0C55AD0E0CD56DC
:10232000DE4FC881D0E0D0642BCFDF70D06A28CFD9
:10233000CE018370992721E030E002C0220F331FC5
:102340008A95E2F7C695C69580E2C89FE001112400
:10235000C22BD32BDD6814CFDC2FCC27C16FD06A02
:102360000FCFC1E0D0E002C0CC0FDD1F2A95E2F70D
:1023700020E2929FC0011124C82BD92BDC6800CF2A
:10238000DC2FCC27C46FD06AFBCE8C2F0E940C10A0
:10239000C82FD0E0DC2FCC27CC27DF71D062F0CE65
:1023A0008C2F8F700E940C1034E0D695C7953A950B
:1023B000E1F7CF709C2FEC01D069E2CEC2EED0E005
:1023C000DFCEC0EED0E0DCCEC6EED0E0D9CEC5E3A5
:1023D000D0E0D6CE0E946F060895809164038111EB
:1023E00010926403089580959091630398239093CD
:1023F000630308958091580390912703981301C0B7
:1024000008958F5F8770FACFB0E0A0E0EAE0F2E1D4
:102410000C9409307C0100912705109128058091CA
:10242000650390916603082B192BCFE0D0E0CC24F4
:10243000C394D12CBC2EC6010C2E02C0880F991F4C
:102440000A94E2F780239123892B49F4219790F78E
:10245000B12C8B2DCDB7DEB7E9E00C942530B70158
:102460008C2F0E944F100E946A10019779F3F1CFD0
:10247000CF93DF93EC010E940412BE010E944F1023
:102480000E946A10DF91CF9108959A3078F58630D6
:1024900068F5E82FF0E086E0989FE00DF11D11242B
:1024A0009E2F977083E0F695E7958A95E1F7EE0FFA
:1024B000FF1FEE0FFF1FEF5FFC4F50E040E080E09A
:1024C000219130E0092E02C0369527950A94E2F753
:1024D00021703327042E01C0220F0A94EAF7822BC1
:1024E0004F5F5F4F4430510559F7089580E00895DC
:1024F0009A3098F5863088F5E82FF0E086E0989FCE
:10250000E00DF11D11248E2F877041E001C0440FB2
:102510008A95EAF783E0F695E7958A95E1F7EE0F5D
:10252000FF1FEE0FFF1FEF5FFC4F30E020E070E079
:102530005191DF011197CB01022E02C0969587952C
:102540000A94E2F7817081958527842385278C93EF
:102550002F5F3F4F2430310559F70895FC018381E7
:102560009481892B29F08081918189238F3F51F4B7
:1025700080E00895843FE1F717C0883EA8F0813FCE
:10258000B9F712C0808191810E94381292959F7094
:10259000963099F358F4925F9F70923048F7803FDD
:1025A00019F040F7883E20F781E008959A5FF4CF54
:1025B000829590E09C01220F331F220F331F2C7C49
:1025C00095958795959587958373282B30E0C9015C
:1025D000880F991F8A7A359527952575822B08953E
:1025E00090912B05937031F1811125C094609093E7
:1025F0002B05109252018091290581608093290555
:1026000080912A0580FF16C080912B0586958695BE
:102610001F928F9381E691E09F938F9384EC97E0D4
:102620009F938F930E94CE040F900F900F900F9066
:102630000F900F900895813210F09068D8CF880FD6
:10264000880F982BD4CF80912B0586958695815045
:1026500009F480E20E94F012089580912B0586957E
:1026600086958F5F813208F081E00E94F012089514
:1026700020912B05237059F180932C0560932D0533
:10268000493708F048E740932E052091290521603D
:102690002093290520912A0520FF19C01F924F93EE
:1026A0001F926F9399279F938F9381E691E09F9359
:1026B0008F9381EA97E09F938F930E94CE048DB70A
:1026C0009EB70A960FB6F8949EBF0FBE8DBF0895B1
:1026D000EBE2F5E0438120E1421B08F440E0818118
:1026E000628190E00E9438130895EBE2F5E04381A7
:1026F00020E1420F08F44FEF8181628190E00E9457
:1027000038130895EBE2F5E0628120E1621B08F4E2
:1027100060E08181438190E00E9438130895EBE2EC
:10272000F5E0628120E1620F08F46FEF818143815F
:1027300090E00E9438130895EBE2F5E08181438137
:1027400062818850990B0E9438130895EBE2F5E0FE
:10275000818190E04381628108960E943813089538
:1027600080932F0590912905916090932905909170
:102770002A0590FF12C01F928F9381E691E09F93EC
:102780008F9382E897E09F938F930E94CE040F90DF
:102790000F900F900F900F900F90089580912F053C
:1027A00020E1382F321B08F430E0832F0E94B01351
:1027B000089580912F0520E1382F320F08F43FEF64
:1027C000832F0E94B01308959FB7F8941092DE04EF
:1027D0009FBF9091ED04943009F048C02091E9002A
:1027E0002F703091EC00932F917030FD90E8922B78
:1027F00023E02093E9002091EB0020FF34C02091DA
:10280000EE0027FF30C02091DD04222321F020912B
:10281000E80025FF28C01092DD0426E03091E80092
:1028200035FF14C08093F1008091E80085FD27C03A
:102830008091E80080FFFCCF8091E8008E77809344
:10284000E8009F709093E90080E008953091ED04D6
:10285000343049F43091EB0035FD05C0215041F48E
:1028600081E08093DD049F709093E9008FEF0895DD
:10287000EFE9FFE03197F1F700C00000CFCF8FB74D
:10288000F89421E02093DE048FBFDBCF8093DA043D
:102890007093DC046093DB048091ED04843001F5D7
:1028A00082E08093E9008FEF9091E800815095FDE0
:1028B00006C095ED9A95F1F700008111F5CF809152
:1028C000E80085FF0DC050E040E063E070E08AED75
:1028D00094E00E9427058091E8008E778093E800BD
:1028E0000895BC0184E00E9446140895BC0183E071
:1028F0000E9446140895CF93DF93EC0181E080930A
:10290000E9008FEF9091E800815095FD06C095EDAC
:102910009A95F1F700008111F5CF8091E80085FFCD
:1029200014C050E040E068E070E0CE010E9427054E
:102930008091E8008E778093E80088E0FE01A3EEA6
:10294000B4E001900D928A95E1F7DF91CF9108955F
:102950006E9A3EB13F7B2EB120644FB7F89483E06E
:1029600094E0FC015191CF0168E02EB9000000C055
:1029700057FF3EB9550F000000C000C000C03EB96F
:1029800000C06A9591F7F4E08F3C9F0751F74FBF65
:102990008FE594E00197F1F700C000000895B0E0E2
:1029A000A0E0E5EDF4E10C9405307C015B01842EA0
:1029B000752E69018091720301E010E08A3010F4F5
:1029C0000AE010E0C1E0D0E0B501C701F6010995C9
:1029D000982E811114C021960C171D07B4F4809114
:1029E0002A0580FF0CC07F928F9282EF93E09F9325
:1029F0008F930E94CE040F900F900F900F90892D0F
:102A0000CDB7DEB7EDE00C942130CC9F9001CD9F87
:102A1000300D300D112490E080E045E34A95F1F748
:102A20000000019628173907C1F7CECF80917103B6
:102A3000811110C08091D80080618093D8008AE114
:102A40008A95F1F700C08091D90080FF0AC081E02B
:102A50008093710381E090917103913009F080E0DF
:102A6000089582E0809371030E94D7041092ED04D0
:102A7000F1CF0E941615882359F0E091D104F0910E
:102A8000D204309729F00190F081E02D0995089546
:102A900080E008950F931F930E941615882329F054
:102AA0000E946F061F910F9108950E946F0600917A
:102AB0009C0310919D0320919E0330919F03600F12
:102AC000711F821F931FEECFCF92DF92EF92FF9282
:102AD0006B017C010E9416158823A1F02FB7F89492
:102AE0006091D6047091D7048091D8049091D90454
:102AF0002FBF6C197D098E099F09FF90EF90DF9021
:102B0000CF9008950E944A15F4CF4F925F926F9232
:102B10007F928F929F92AF92BF92CF92DF92EF926D
:102B2000FF926091FE037091FF03809100049091E9
:102B300001040E9464156B017C010E944A154B013F
:102B40005C018092FE039092FF03A0920004B09279
:102B50000104A091D503E5EDF3E08A2F90E04FEF5B
:102B60005FEF60E070E04C195D096E097F09A91301
:102B700028C08093D50380910204811135C09091C3
:102B80002B05892F837019F0892F86958695909152
:102B90005201913009F441C0992341F1923009F476
:102BA0003FC0933009F43FC0FF90EF90DF90CF908B
:102BB000BF90AF909F908F907F906F905F904F905D
:102BC0000895218D328D2901712C612C44155505F4
:102BD0006605770520F481509F5F3296C8CF2C0D93
:102BE0003D1D328F218FF8CF80E0D1CF10924F0161
:102BF0008092F7049092F804A092F904B092FA043B
:102C000089E2E5EDF3E0ABEFB4E001900D928A9537
:102C1000E1F781E080935201C7CF0E94B50DC4CF88
:102C20000E94E906C1CF80912905882351F046E032
:102C300050E06CE170E08BE295E00E94D0301092A1
:102C400029056091F7047091F8048091F90490913E
:102C5000FA040E946415603171058105910508F43C
:102C6000A3CF10925201A0CF80912A0580FF08C007
:102C70008FEA96E09F938F930E94CE040F900F905F
:102C800085E380932B058091530190915401A0918D
:102C9000550180932C0590932D05A0932E058FE769
:102CA00080932F058FEF8093300546E050E06CE174
:102CB00070E08BE295E00E94D030109229050895D3
:102CC000CF9384E090E00E94C230C82F82E290E06F
:102CD0000E94C230982F8C2FCF910895AFE0B0E0C2
:102CE000E4E7F6E10C9405308E010F5F1F4F8AE098
:102CF000D8011D928A95E9F786E3C82E81E0D82E87
:102D0000F12CE12CAA24A394B12C26E3822E21E0FD
:102D1000922EF60181916F018F3F09F442C0F89421
:102D2000E82FE295EF70F0E021A18F70A50102C0BD
:102D3000440F551F8A95E2F7CA01922F982B91A351
:102D400092A18095892382A3789400C0E0E3F1E00A
:102D5000712C31E021912F3F09F46BC0A22FA29575
:102D6000AF70B0E090968C9190E02F7002C0959576
:102D700087952A95E2F780FD5CC0832F782A330F70
:102D80008E169F0639F7F601319780818F3F11F03B
:102D90000E94F50F50EA5A95F1F7F801EE0DFF1D6C
:102DA00070828FEFE81AF80A95E0E916F10409F04D
:102DB000B0CF4AE050E0B80180EA93E00E940431CD
:102DC000009741F02AE0F801A0EAB3E001900D92EB
:102DD0002A95E1F70091AB03892B69F181E080939B
:102DE00069030E947B069093680380936703809138
:102DF0006703909168030E946006059700F110E058
:102E00000E541C4F45E050E060EA73E0C8010E9498
:102E10000431C12C892B51F085E0E0EAF3E0D801C0
:102E200001900D928A95E1F7CC24C3941092690326
:102E300007C080E0A3CF809169038111D8CFC12C56
:102E40000E941615D82EE091AB03DE011B967D0182
:102E5000882309F499C085E01D928A95E9F70E2F21
:102E600010E00E541C4FB0907203B9E0BB1508F48B
:102E700047C022EC3EE148E651E0B701C8010E949C
:102E8000CF14882309F45EC029E63EE145E751E00E
:102E9000B701C8010E94CF14882309F453C02EE65D
:102EA0003DE14DE751E0B701C8010E94CF148823EE
:102EB00009F448C02CE03DE148E851E0B701C80101
:102EC0000E94CF148823F1F1F9E0FB1508F453C0F8
:102ED000109272038091AA0390E045E050E0B701A0
:102EE0008E549C4F0E94043121E020937003892B63
:102EF000E1F4D12C8D2D8C292F96EDE00C9421300E
:102F000080916A0390916B030E946006843F914018
:102F100008F0AFCF80917003882359F385E0D70183
:102F20001D928A95E9F710927003A091AA03B0E070
:102F3000AE54BC4F85E0FE013B9601900D928A9500
:102F4000E1F7D8CF809172038F3F31F08F5F80938C
:102F500072038A3008F4BECF0E947B0690936B0305
:102F600080936A0380912A0580FFD4CF8CEB93E095
:102F70000E943504CFCF80912A0580FFA9CF89EA2E
:102F800093E00E943504A4CFF0E0EE54FC4F85E0BE
:102F9000A5E8B3E001900D928A95E1F765E070E055
:102FA00085E893E00E94CD06809384034091CF038F
:102FB00050E06091CE0370E06A537C4FC7010E94DD
:102FC00011318B859C8590938C0380938B0362E0F9
:102FD00070E0C7010E94CD0680938A0380908D0324
:102FE00090908E03A0908F03B090900380916C031B
:102FF00090916D03A0916E03B0916F0388169906AE
:10300000AA06BB06D1F080926C0390926D03A09249
:103010006E03B0926F030E94161581110EC00E94BC
:103020006F06861A970AA80AB90A80929C039092A2
:103030009D03A0929E03B0929F0386E0E1E9F3E036
:10304000ABE2B5E001900D928A95E1F710919703FC
:10305000112349F080910204811105C00E94B50D31
:1030600080E00E94E9061093020444CF0F931F935F
:10307000CF93DF938091630390916203892B8093B8
:10308000F80290916403992391F0892B8093F802C0
:1030900020E08AEF92E0FC013191CF0131112F5FE6
:1030A000F3E080309F07B9F721110E94ED1148E04D
:1030B00050E06AE573E088EF92E00E940431892BCA
:1030C00009F441C088E0E8EFF2E0AAE5B3E001903E
:1030D0000D928A95E1F7E091D104F091D2043097F6
:1030E00091F10280F381E02D88EF92E009958091C3
:1030F0002A0582FF28C080FF04C087EB91E00E9470
:103100003504D0E0C0E001EB11E080912A0580FF9A
:103110000EC0FE01E850FD4F80811F928F931F93D8
:103120000F930E94CE040F900F900F900F90219656
:10313000C830D10551F780912A0580FF04C08FEA7D
:1031400091E00E943504DF91CF911F910F91089576
:1031500090E080E00E94B70690E080E00E94A10627
:10316000109262030E943618089590932805809368
:1031700027050E94A8180895809127059091280599
:103180009C01267033272630310521F488600E9487
:10319000B5180895877FFBCF21E030E002C0220FF1
:1031A000331F8A95E2F720953095809127059091FD
:1031B0002805822393230E94B518089590915903FE
:1031C0008095892380935903282F277091F4282F05
:1031D000082E000C330B9217130659F09091AD0393
:1031E00092FF07C08595859585950E94CC18109211
:1031F0005903089521E030E002C0220F331F8A9561
:10320000E2F78091270590912805822B932B0E944D
:10321000B518089590936603809365030E94A818DB
:10322000089510926303EAEFF2E086E0DF011D9259
:103230008A95E9F70E94A8180895AAE2B0E0E3E2AF
:10324000F9E10C940F308FEE94E02091F100DC0155
:103250002D93CD01B4E0873F9B07B9F78091F0042F
:10326000833009F470C0B8F4813009F447C082306B
:1032700009F4B1C08091E80083FF84C28091EF041B
:103280009091F0049A3008F07DC2E92FF0E0E35C01
:10329000FE4C0C948A308A3009F48CC08B3009F4CF
:1032A0006FC0893039F78091EF04813219F780912E
:1032B000F3049091F4040297E8F68091E800877F88
:1032C0008093E8008091E80082FF38C09091F3007D
:1032D0008091F200029731F48091F100813011F079
:1032E000863021F48091F1008093E2048091E8001F
:1032F0008B778093E8000E945105BCCF8091EF044A
:10330000813A09F0B7CF8091E800877F8093E80089
:103310008091F3049091F404892B61F468E083EECA
:1033200094E070E00E94FD058091E8008B77809327
:10333000E800A0CF60E090E080E0F3CF8091ED0462
:103340008111C0CF97CF8091EF04813A09F092CFDD
:103350008091F3049091F404892B09F08BCF809134
:10336000E800877F8093E8008091E80080FFFCCF31
:1033700080914E018093F1008091E8008E77B9CF63
:103380008091EF04813209F075CF8091F304909120
:10339000F404892B09F06ECF8091E800877F809339
:1033A000E8000E9451058091F10480934E010E9433
:1033B000111960CF8091EF04813209F05BCF8091C9
:1033C000E800877F8093E8000E9451058091F20415
:1033D0008093E1044FCF8091EF04813A09F04ACF06
:1033E0008091E800877F8093E8008091E80080FF6B
:1033F000FCCF8091E104BECF803899F0823809F08B
:10340000C1C18091F3048F70873008F0BBC18093F5
:10341000E9008091EB0085FB882780F91092E90094
:1034200006C08091EB049091EC0491118260909120
:10343000E800977F9093E8008093F1001092F100EC
:103440008091E8008E779AC1882309F488C1823080
:1034500009F098C18091F10481118BC18091F3042E
:103460008F702FEF280F263008F08CC18093E90071
:103470002091EB0020FF7DC1933031F48091EB006F
:1034800080628093EB0075C19091EB009061909306
:10349000EB0021E030E001C0220F8A95EAF720938B
:1034A000EA001092EA008091EB008860EACF811177
:1034B00069C11091F1041F778091E3008078812B1E
:1034C0008093E3008091E800877F8093E8000E946A
:1034D00051058091E80080FFFCCF8091E300806877
:1034E0008093E30082E0111183E08093ED044AC1F0
:1034F0008058823008F046C12091F1043091F204E6
:103500002C3DE3E03E07A1F583E08A838AE28983CC
:103510004FB7F894DE01139620E03EE051E2E32F2E
:10352000F0E050935700E49120FF03C0E295EF7064
:103530003F5FEF708E2F90E0EA30C0F0C7968D931A
:103540009D932F5F243159F74FBF8091E800877F0B
:103550008093E8006AE270E0CE0101960E94FD05CA
:103560008091E8008B778093E8000CC1C096E7CF8C
:103570008091F3049091F404432F55274330510573
:1035800009F44AC078F54130510509F47AC08BE559
:1035900090E0E7EEF6E04230510509F0F3C02091EB
:1035A000E800277F2093E8002091F5043091F6048D
:1035B0008217930708F49C0140E02115310509F0BA
:1035C00065C0411163C08091E80082FDC9CF809140
:1035D000ED04882329F2853019F28091E80083FFF9
:1035E000F2CFBECF4132510509F43CC04232510501
:1035F00009F0C8C08330910508F0C4C0FC01EE0F8B
:10360000FF1FEF51FE4F0190F081E02D82529E4F3F
:10361000DC018C9190E01AC0332721303105D1F0C4
:103620002115310561F02230310509F0ABC0E4E528
:10363000F7E0E4918E2F90E0E4E5F7E007C0EEE7D5
:10364000F7E0E4918E2F90E0EEE7F7E0009709F4C1
:1036500099C0A5CFEEE6F7E0E4918E2F90E0EEE67C
:10366000F7E0F4CF8330910508F08CC0880F991FE4
:10367000FC01E951FE4F0190F081E02D89E090E0DE
:103680008ECF82E190E0E2E4F7E089CF8091ED0413
:10369000882309F465CF853009F462CF8091E80072
:1036A00083FD5ECF8091E80082FD8DCF8091E800A0
:1036B00080FF83CF9091F3008091F20021153105B6
:1036C00019F08830910550F041E0089709F040E08A
:1036D0008091E8008E778093E8006FCF449140930B
:1036E000F1003196215031090196E8CF803809F078
:1036F00049C08091E800877F8093E8008091EE04C4
:103700008093F1009DCE81113DC01091F1041230E3
:10371000C8F58091E800877F8093E8001093EE045D
:103720000E945105112311F084E005C08091E3004F
:1037300087FDFACF81E08093ED0442E061EC81E007
:103740000E94700542E261EC82E00E94700542E254
:1037500061EC83E00E9470058091ED0413C08091BC
:10376000F104813079F481E0933009F080E08093B6
:10377000EC041092E9008091E800877F8093E800D4
:103780000E9451058091E80083FF0AC08091E80003
:10379000877F8093E8008091EB0080628093EB004C
:1037A000AA96E3E00C942B300E9411192FEF84E3CA
:1037B0009CE0215080409040E1F700C0000088E18B
:1037C0009CE00FB6F894A895809360000FBE90938C
:1037D0006000FFCF882321F00E94F3110E94361869
:1037E0000895882339F090916303982B9093630395
:1037F0000E9436180895882391F19CEF980F913A12
:1038000080F4EAEFF2E020E033E09191891303C005
:10381000DF0111971C922E173F07B9F70E94361847
:10382000089590E2980F983050F4877091E001C0AD
:10383000990F8A95EAF7892F0E94F311EFCF9BE544
:10384000980F933028F490E080E00E94B706089526
:10385000885A873120F490E080E00E94A106089504
:10386000CF93C82F8823B1F08CEF8C0F813A00F5ED
:10387000EAEFF2E080E093E0DF012D91C21761F002
:103880008A179B07D1F76C2F88EF92E00E9487067A
:103890000E943618CF9108952191C21303C0DF0111
:1038A00011971C928E179F07B9F70E943618EBCF1D
:1038B00080E28C0F883068F4C77021E030E001C0EE
:1038C000220FCA95EAF780916303822B80936303EA
:1038D000DFCFEBE5EC0FE33040F4F0E0ED56FE4FC8
:1038E000808190E00E94B706D5CFC85AC73190F6C4
:1038F000EC2FF0E0EE0FFF1FEA56FE4F8081918122
:103900000E94A106C7CFCF93C82F0E94301C8C2FD6
:103910000E94FB1BCF9108950F931F93CF93DF93CA
:10392000C62FD42F022FFC0182818823A9F0609337
:1039300026050E947B069093250580932405C77079
:1039400081E001C0880FCA95EAF70E94F11BDF9160
:10395000CF911F910F91089580912605681332C071
:1039600080912405909125050E946006883C910570
:1039700048F510E21D0FCD17B9F080E28C0F8830AA
:1039800040F4C77081E001C0880FCA95EAF70E9431
:10399000EA1B183048F481E09D2F977001C0880F12
:1039A0009A95EAF70E94F11B802F0E94831C183021
:1039B00070F6D77081E001C0880FDA95EAF70E94AF
:1039C000EA1BC5CFC77081E001C0880FCA95EAF72E
:1039D000F6CF833071F480912705909128050097E8
:1039E00011F080FF08C089EA611101C08AEA0E94D3
:1039F000831C80E0089581FF05C08BEA6111F7CF39
:103A00008CEAF5CF82FFF5CF662319F00E942D13C3
:103A1000F0CF0E942313EDCFA7E0B0E0E2E1FDE19B
:103A20000C940E3086E0EBE2F5E0DE011196019099
:103A30000D928A95E1F7809102048F8347E050E070
:103A400061E973E0CE0101960E9404310091980370
:103A50001091990320919A0330919B03EFB7F8944A
:103A60004091D6045091D7046091D8047091D90444
:103A7000EFBF401B510B620B730B443651056105C0
:103A8000710518F411E0892B21F1809129019091A1
:103A90002A018C579C4F4091280150E04830510535
:103AA00010F047E050E0BE016F5F7F4F0E94113180
:103AB00085E090E00E948A2F182F882351F00E9401
:103AC0006F06609398037093990380939A03909381
:103AD0009B03812F2796E4E00C942A30A4E0B0E009
:103AE000E4E7FDE10C940F30409180035091810395
:103AF00060918203709183032FB7F8948091D6046C
:103B00009091D704A091D804B091D9042FBF841B01
:103B1000950BA60BB70B11E084369105A105B105F5
:103B200070F10E944A156E5F7F4F8F4F9F4F6983E0
:103B30007A838B839C8380912101909122018C5701
:103B40009C4F4091200150E04530510510F044E079
:103B500050E0BE016F5F7F4F0E94113184E090E022
:103B60000E948A2F182F882351F00E946F066093BD
:103B70008003709381038093820390938303812F4A
:103B80002496E3E00C942B304F925F927F928F92B9
:103B90009F92AF92BF92CF92DF92EF92FF920F93DC
:103BA0001F93CF93DF930F92CDB7DEB7C62E4A0196
:103BB0005901482E880F5508C2010E948A2F782E7D
:103BC000882309F480C0C20133E0880F991F3A9519
:103BD000E1F7FC01E050FF4F438150E041155105F2
:103BE00011F041E050E080509F4FFC0164817581ED
:103BF0006C577C4FCE0101960E941131F401408137
:103C00005181628173812FB7F8948091D60490918D
:103C1000D704A091D804B091D9042FBF841B950B71
:103C2000A60BB70B84369105A105B10540F4B70189
:103C3000C8010E94CD069981891709F444C00C2C53
:103C4000000CDD08C6010E948A2F782E811113C056
:103C5000712C872D0F90DF91CF911F910F91FF90C5
:103C6000EF90DF90CF90BF90AF909F908F907F901C
:103C70005F904F900895C60123E0880F991F2A9501
:103C8000E1F7FC01E050FF4F438150E0E416F506F8
:103C900008F4A70180509F4FFC01648175816C5727
:103CA0007C4FC5010E941131B701C8010E94CD06A9
:103CB00099818913CDCF0E946F06F40160837183CF
:103CC00082839383C6CFA701B801C5010E94113139
:103CD000C0CFA2E0B0E0EFE6FEE10C94093082E054
:103CE000E82EF12C0BE813E09E012F5F3F4F4CE7CD
:103CF00053E063E082E00E94C41DC82E882339F19E
:103D000000E080E01DC0D090AF03D00E2D2D30E03C
:103D1000A9014A535C4F7A01E1E0F0E0EC0FFD1F8E
:103D2000E00FF11D1081FA019081191BB12E1B14B7
:103D30009CF0912F17FD90E0191B111118C00F5F17
:103D40009091AE030917F8F281110E94EA118C2DAF
:103D50002296E9E00C942530BA94F70180818F5FB8
:103D6000808360E08D2D0E94E91C8C2DE0CF1F5FC9
:103D7000F70180818150808361E08D2D0E94E91CD4
:103D80008C2DDBCFA5E0B0E0E8ECFEE10C940A302E
:103D90006B0185E0E82EF12C05E813E09E012F5F12
:103DA0003F4F48E753E061E080E00E94C41D882354
:103DB00049F095E0FE013196A3E7B3E001900D9242
:103DC0009A95E1F795E0E3E7F3E0D60101900D92D3
:103DD0009A95E1F72596E8E00C94263068EE7EEFA0
:103DE00090E080E00E94FE3060E082E090E00E947F
:103DF000E03060E083E090E00E94E03010926603E3
:103E00001092650360E084E090E00E94E03064E09E
:103E100082E290E00E94E03060E085E090E00E9465
:103E2000E03060E086E090E00E94E0306FEF87E0F5
:103E300090E00E94E03040E050E0BA0188E090E07D
:103E40000E94F23060E08DE090E00E94E03040E0BF
:103E500050E0BA0188E190E00E94F23060E087E132
:103E600090E00E94E03040E050E0BA018CE190E048
:103E70000E94F23070E060E080E290E00E94FE304C
:103E800040E050E0BA0188E190E00E94F23040E06A
:103E900050E0BA018FE090E00E94F23040E050E044
:103EA000BA0183E190E00E94F2300895CF93DF934E
:103EB000D82FC091AD03C2FB882780F98D1711F16F
:103EC000D0FBC2F9C093AD036091AC0384E090E0F5
:103ED0000E94E0306C2F82E290E00E94E03082E0AD
:103EE0000E94DE1880912A0580FF0CC01F92DF938C
:103EF0008AE991E09F938F930E94CE040F900F90D8
:103F00000F900F90DF91CF910895A5E0B0E0EBE81E
:103F1000FFE10C9406307C01FC0183819481892BA4
:103F200031F08081918189238F3F09F0EFC425967C
:103F3000ECE00C9422300E940412182F682F898123
:103F40009A810E94781269817A81812F0E944F1094
:103F50008C01833BFDE59F0709F4AFC0F8F4823B79
:103F60009D4509F48BC0043FECE51E0709F4C3C06E
:103F700038F5093D2CE5120709F4B9C00A3D3CE5C6
:103F8000130709F4C4C0083D8CE5180739F526E28B
:103F900041EE61EEC7010E948C1C7DC0043B8DE5A3
:103FA000180709F498C0053B9DE51907E1F6F701EC
:103FB0008281882309F497C083E00E94FA186BC0BD
:103FC000063F9CE5190709F49EC008F498C027E253
:103FD00045EE66EE073FFCE51F07E1F2F70182813F
:103FE000882309F4A4C4109226050430FDE51F07B8
:103FF00008F090C00B3F2CE5120730F4C801825046
:104000009C45449708F091C00E9460169093AD03C0
:104010008093AC030231ECE51E0709F491C108F06E
:10402000DDC009302CE5120709F468C108F0A7C00B
:1040300005308CE5180709F451C108F093C003302E
:10404000ECE51E0709F442C108F044C18091AC03BD
:10405000816002302CE5120709F4BDC06091AC0309
:104060001091AD0384E090E00E94E030612F82E285
:1040700090E00E94E0300E9411190DC0F70182818A
:10408000882349F061E083E090E00E94E03081E025
:1040900090E00E940A1980915903877009F447CF74
:1040A000F7018281882309F442CF8091AD0382FF1A
:1040B0003ECF82E00E94DE183ACFF701828188234A
:1040C00031F081E00E94FA180E94BC18E4CF81E030
:1040D0000E94CC18F9CFF7018281882311F082E089
:1040E000F1CF82E0F5CF83E00E94CC18D4CF27E255
:1040F00045EE65EE4FCF26E241EE60EE4BCF27E274
:1041000045EE64EE47CF26E241EE62EE43CF28E271
:1041100041E0EFCF063A3DE5130709F475CFE0F42F
:1041200002369DE5190709F46FCF06318CE51807B3
:1041300009F086C4809163038A7A91E009F490E0E3
:104140009093000369E2811165E388EF92E00E9499
:1041500087060E9436189FCFC8018E5A9D45039747
:1041600020F752CF8091AC03806207303CE5130703
:1041700091F108F4BFC08091AC0380642CC00D3075
:104180009CE5190709F4C4C090F48091AC038E7FBC
:104190000B30FCE51F07F9F08091AC038C600C300C
:1041A0002CE51207C0F08091AC038D7F14C00F3056
:1041B0003CE5130709F4BCC008F4AEC000319CE52F
:1041C000190709F4B9C08091AC038F7B0131ECE58C
:1041D0001E0709F043CF8093AC0340CF0115FDE5E6
:1041E0001F0709F4B7C0A8F50B3F3CE5130709F416
:1041F00079C0C0F404319CE5190709F4B9C008F48A
:10420000A5C00531FCE51F0709F028CF8091AC035C
:1042100082FB992790F921E0922790FB82F990FB8D
:1042200083F9D9CF0D3F2CE5120709F479C008F4C2
:104230005DC00E3F8CE5180709F476C08091AD0390
:1042400083600F3F9CE5190709F008CF8093AD0309
:1042500005CF0236EDE51E0709F495C090F4023053
:104260002DE5120709F48DC008F478C060E0033032
:104270008DE5180709F0F2CE8EE090E00E94E03064
:10428000EDCE0E3A9DE51907E9F060F49091AC038C
:10429000892F8E7F90FF8160063AFDE51F0709F4A4
:1042A0009ACFDCCE0F3A2DE5120771F1003B3DE5C8
:1042B000130709F0D3CE9091AD03892F877F93FF29
:1042C0008860C4CF8091AD038860C0CF8091AC037B
:1042D000826081CF8091AC0384607DCF8091AC03FC
:1042E000886079CF8091AD038160B0CF8091AD03BC
:1042F0008260ACCF8091AC0380616DCF0E941119B8
:104300008091AC03806867CF8091AD03877F9ECF9B
:104310008091AC038B7F5FCF8091AC03877F5BCFB5
:104320008091AD038E7F92CF8091AD038D7F8ECF34
:104330008091AC038F7E4FCF8091AC038F7D4BCFAC
:104340000E9411198091AC038F7745CF8091AC0307
:10435000837F41CF8091AD038C7F78CF8091AD0377
:10436000982F909591708E7F892B90FB81F96ECF5D
:104370000E9411199091AC03892F97FB87F98058FF
:104380002ACF61E079CF9091AC03892F8F7E94FF83
:10439000806121CF8091000381110FC089E2EAEF93
:1043A000F2E020E033E09191891303C0DF0111971F
:1043B0001C922E173F07B9F7CCCE85E3F0CF43E22E
:1043C00053E16DE273E10E94E30665CE4DE253E1F5
:1043D00063E273E1F8CF4CE953E166EA73E1F3CFAE
:1043E00046EA53E16CE973E1EECF42E853E16FE84E
:1043F00073E1E9CF4FE853E162E873E1E4CF45E7C9
:1044000053E168E673E1DFCF4EEC53E169ED73E110
:10441000DACF49ED53E16EEC73E1D5CF81E00E9434
:10442000F01239CE8DE0FBCF90912A05892F8E7F37
:1044300090FF816080932A0580FF05C089E891E0A4
:104440000E94350428CE87E791E0FACF0E94EE1E45
:104450000E94D41B8091AD0382FB882780F991E0F4
:1044600089270E94561FF7018281008111818823CC
:1044700009F445C0C8010E940412D82E682FC80153
:104480000E947812B8018D2D0E944F100E946A1070
:104490008C01882EF701D280B580B2943FE0B32220
:1044A000809159038770C1F0AD2CDD20B1F0812FD0
:1044B000807F803421F080E2800F883068F0809126
:1044C000AD0382FF09C082E00E94DE18809159038B
:1044D0008770AA24A3948111A12C912E92942FE08D
:1044E0009222FBE0F91508F476C0E92DF0E0E95BD3
:1044F000FE4C0C948A3081E0B4CF80E0B2CFC8018A
:104500000E944512D82EBECF212F2F70C22E107FB1
:1045100019F0C29490EFC922DD20B9F0CC2069F0E7
:1045200080E2800F883010F0811009C08091630311
:10453000C82AC09263030E943618802F4AC0809117
:104540006203C82AC0926203F6CF802F0E94FB1B31
:10455000CC2009F440C0005E083010F0811004C087
:104560008C2D0E94F31106C0C09480916203C82272
:10457000C09262030E9436182EC0312F3F70C32EA6
:10458000107F103219F0C29480EFC822882089F081
:1045900081E0881609F477C0DD2009F481C0BB20D2
:1045A00009F477C0F701858180FFC7CF8F708583BD
:1045B00070C02091AD0322FD43C0DD20D9F1CC2095
:1045C00039F080916303C82AC09263030E943618B1
:1045D00080E00E94301CE92DE850FF0B349710F466
:1045E0000E943915AA20A9F08091590380FD11C0BD
:1045F000F70112828595859585950E94FA18C70165
:104600000E94851F809159038595859585950E9407
:10461000CC1885E0F701DE01119601900D928A9584
:10462000E1F709811A81C8010E944512B8010E9470
:104630004F107DCC80E00E94FB1BCC2061F290CF1C
:10464000DD20A1F0909164038C2D892BB11003C063
:104650000E94F11BC0CFE1E0BE12FACF22FFBBCF18
:10466000981709F4B8CF80936403B5CFB11006C092
:104670000E94ED118C2D0E94EA1BADCFF1E0BF1618
:1046800009F4A9CFF5CFDD2031F025E02B1508F492
:10469000A2CF8C2DDDCF34E03B1508F49CCFEACFC0
:1046A000BB2041F3F9E38F122AC12FEF37EE83E0ED
:1046B000215030408040E1F700C0000020C1812F30
:1046C00086958695837061F0813009F084CFC801AA
:1046D0009370D11002C090E080E00E94A1067BCFD1
:1046E000C8019370D11002C090E080E00E94B7062C
:1046F00072CF812F837009F03FC0D1106CCF402F53
:10470000429546954770440F440F802F8F7090E07C
:10471000042E02C0880F991F0A94E2F730E020E0CF
:1047200004FF09C02FE030E002C0220F331F4A957A
:10473000E2F720953095169516951370123099F082
:1047400078F44091650350916603113039F0822B63
:10475000932B842395230E940A193DCF842B952BFC
:10476000822B932BF8CF822B932B209165033091D2
:10477000660382279327EFCF8695DD2011F0812FE6
:104780008170882309F427CF402F429546954770C2
:10479000440F440F802F8F7090E0042E02C0880FCA
:1047A000991F0A94E2F730E020E004FF09C02FE0EF
:1047B00030E002C0220F331F4A95E2F72095309572
:1047C000169516951370123099F078F440912705DC
:1047D00050912805113039F0822B932B8423952397
:1047E0000E94B518F8CE842B952B822B932BF8CFF3
:1047F000822B932B20912705309128058227932720
:10480000EFCF1F70DD2029F0812F0E94FA18802F32
:104810001FCF802F0E94EA1B812F0E94CC18DBCE75
:10482000802F92EF891699F1981570F0E0EF8E16AF
:10483000D1F0F1EF8F1691F0DD2009F45BC0B110DB
:104840007CCE812F8F7127C023EF821639F134EF90
:104850008312F2CF8091AD0382FD2EC0812F8F7124
:10486000DD20D9F218C0DD2069F084E08B1508F452
:10487000B2CE1F7181E090E002C0880F991F1A9597
:10488000E2F7B8CF95E09B1508F4A5CEF2CF812FC3
:104890008F71D110C2CF0E94FA189DCE90E080E0B7
:1048A000DD2009F49DCF1F7181E090E002C0880FE8
:1048B000991F1A95E2F794CFDD2089F01F71812F9F
:1048C0000E94FA188091AD0382FF07C0E8E01E9FA6
:1048D000C0011124836080935903812FDCCF81E0D4
:1048E0000E94DE18F1E0FB1508F075CE82E00E9410
:1048F000DE1871CEBB2039F0893309F4D6CE802F73
:104900000E94FB1B68CE812F8F7187CF85E0DE016F
:10491000119601900D928A95E1F7F7012281898124
:104920009A81211108CB0E944512182F0CCB063119
:10493000FCE51F0709F42ECD8091630382720B3CC6
:104940002CE5120709F45BCD08F050C0063C9CE54D
:10495000190709F440CDA0F5043CFCE51F0709F454
:104960002ECD08F033CD033C3CE5130709F07BCD99
:1049700080912B05982F937021E092278C7F892BB3
:1049800080932B05109252018091290581608093BC
:10499000290580912A0580FF7ECB1F929F9381E697
:1049A00091E09F938F9380E491E09F938F930E9477
:1049B000CE040F900F900F900F900F900F906BCB35
:1049C000083C9CE5190709F410CD08F409CD093C11
:1049D000FCE51F0709F40ECD48E653E165E773E1F6
:1049E0000A3C2CE5120709F4EECC3DCD003D3CE538
:1049F000130709F417CD98F40D3CECE51E0709F4F4
:104A000008CD08F401CD0E3C2CE5120709F406CDC3
:104A100085E00F3C3CE5130709F401CD24CD073DAB
:104A20008CE5180738F482E1023D9CE5190708F48B
:104A3000F6CC31CB0E35EDE51E0709F42CCB13CDAA
:104A40000B35FDE51F0709F456CD08F03DC00130D8
:104A50003CE5130709F4E8CC0F3D8CE5180709F491
:104A6000F5CC01151C4509F0FECC0E9411199FEFF1
:104A7000E4E3FCE09150E040F040E1F700C00000CA
:104A800081E08093E00080E28093D8001092C9001A
:104A90008FE19EE40197F1F700C0000087E090EB02
:104AA000DC018093310590933205A0933305B093D8
:104AB000340588E19CE00FB6F894A89580936000D7
:104AC0000FBE90936000FFCF0D35EDE51E0709F492
:104AD000C1CC08F412CD083A1D4509F4B9CCC3CCB9
:104AE0001F93CF93DF9380912603807F09F049C005
:104AF00080912303882309F444C080915803D09106
:104B000027036091210370912203A0912403B091A7
:104B10002503C62FC72316E0D81799F190E0109708
:104B200011F0CF3F19F401968770F6CF189F9001CE
:104B3000199F300D1124F901E85DFC4F41814713A5
:104B4000F2CF40814613EFCF42814111ECCF438138
:104B500054814A1B5B0B483C510528F78091260382
:104B60008F70806180932603F901E35DFC4F8081A3
:104B70008F708061808381E293E00E94851F0E9494
:104B8000FA11DF91CF911F910895A1E1B0E0EBEC14
:104B9000F5E20C9408308C0185E0F801DE011D96E9
:104BA00001900D928A95E1F7F801E28081E2A82E4A
:104BB00083E0B82E6091240370912503611571057F
:104BC00009F426C19091210340912203892F842367
:104BD0008F3F09F41DC120813181C380D480F090C2
:104BE0002303F601E61BF70BFF2009F4DCC08091DC
:104BF0002603582F507FE83CF10508F09FC0511163
:104C00006BC0FE2C431314C0921312C0E11010C0ED
:104C10008F70806180932603C5010E94851F80915B
:104C20002603F80185838F2D6196EAE00C942430E9
:104C3000C114D10429F0822F83238F3F09F003C1CF
:104C400080E0F82FF170DF2E80FF3CC08091580388
:104C50004091270356E0841315C02D873E878D852C
:104C60009E850E943812292F22952F702230F0F055
:104C7000243018F59F70F1F0F8019581907FD1F400
:104C8000D12C1EC090E0589FF001599FF00D1124C7
:104C9000E85DFC4F6181361306C06081261303C0B6
:104CA0006281E6120FC001968770D5CF9F7011F018
:104CB000882331F3805E883018F3C8010E94851F75
:104CC000FD2CB1CFEE2009F4AECF80912603816098
:104CD00080932603F12CA7CF431306C0921304C080
:104CE000F801EE2009F479C0C8010E94AE128823B1
:104CF00009F1EE20F9F080912603803270F02091C6
:104D000021033091220338872F831986DB86CA86D8
:104D10008C87CE0107960E94851F86E0F801A1E2EC
:104D2000B3E001900D928A95E1F70E947025FF246F
:104D3000F39479CFC8010E94851FF9CF51110AC0A1
:104D400081E293E00E94851F86E0F50111928A9529
:104D5000E9F7C0CF43130FC092130DC0E1100BC091
:104D6000F8018583C8010E94851F86E0F501119234
:104D70008A95E9F758CFC8010E94AE128823D1F274
:104D8000EE20C1F280912603803238F22091210377
:104D9000309122033A8329831B82DD82CC828E8369
:104DA000CE010196B8CFE83CF105F8F6FE2CEE20D6
:104DB00009F243131FC092131DC08091260380FD8A
:104DC00010C0982F907F69F0F8018583903F31F0F3
:104DD000982F907F905F8F70892B8583C8010E94E8
:104DE000851F86E0F801A1E2B3E001900D928A955B
:104DF000E1F719CFC8010E94AE1281118ECF8091C8
:104E00002603816080932603C8010E94851F0BCF73
:104E1000EE2009F48FCFC8010E94AE12F82E88232D
:104E200009F488CF86E0F801A1E2B3E001900D9289
:104E30008A95E1F780912103909122030E94381214
:104E40000E947025F0CE81E08E25FBCEA7E1B0E078
:104E5000ECE2F7E20C940F304B8B5C8B6D8B7E8B0E
:104E60008F8B6111109262031A8A198A85E0FE0104
:104E70007396DE011D9601900D928A95E1F786E00A
:104E8000FE013D96DE01179601900D928A95E1F79D
:104E9000CE0107960E94C525882359F016E080911F
:104EA000580390912703891343C06796E3E00C945D
:104EB0002B3086E0FE013796DE01119601900D92AF
:104EC0008A95E1F78A859B85892B41F38F819885A7
:104ED00089238F3F19F32091270330E0C901019600
:104EE00087709927409158034817190671F40E945A
:104EF0001119109227031092580386E0E1E2F3E0C3
:104F0000DF011D928A95E9F7C9CF96E0929FD00103
:104F1000939FB00D1124A85DBC4FFE013196019006
:104F20000D929A95E1F7809327030E94FA11B6CF6C
:104F3000819FC0011124885D9C4F0E94C525882354
:104F400009F4B3CF8091580390E0019687709927B8
:104F500080935803A4CF1F920F920FB60F92112483
:104F60002F933F934F935F936F937F938F939F9371
:104F7000AF93BF93CF93DF93EF93FF93D091E9006B
:104F8000DF708091EC00C82FC17080FDC0E81092E6
:104F9000E9008091F000877F8093F00078940E9470
:104FA0001D191092E9008091F00088608093F00054
:104FB000CD2BCF70C093E900FF91EF91DF91CF919E
:104FC000BF91AF919F918F917F916F915F914F9121
:104FD0003F912F910F900FBE0F901F9018951F9229
:104FE0000F920FB60F9211242F933F934F935F931D
:104FF0006F937F938F939F93AF93BF93EF93FF93A1
:105000008091E10082FF15C08091E20082FF11C013
:105010008091E1008B7F8093E1002091DF042F5F7E
:10502000822F62E30E943730992309F4C0C0209395
:10503000DF048091DA0080FF28C08091D80080FFD3
:1050400024C08091DA008E7F8093DA008091D900AD
:1050500080FFE3C080E189BD82E189BD09B400FE23
:10506000FDCF81E08093ED0483ED96E00E9435044E
:105070008091E004811109C00E94D7040E94A2051A
:105080008091E20084608093E2008091E10080FFE3
:105090001BC08091E20080FF17C08091E2008E7FEC
:1050A0008093E2008091E20080618093E200809131
:1050B000D80080628093D80019BC85E08093ED040D
:1050C0008BED96E00E9435048091E10084FF2FC0B3
:1050D0008091E20084FF2BC080E189BD82E189BD1F
:1050E00089B5982F917080FFFBCF8091D8008F7D7C
:1050F0008093D8008091E1008F7E8093E1008091C1
:10510000E2008F7E8093E2008091E20081608093D4
:10511000E2008091EE04882309F489C084E0809342
:10512000ED048FED96E00E9435048091ED048091AE
:10513000E10083FF2BC08091E20083FF27C08091B4
:10514000E100877F8093E10082E08093ED0410927C
:10515000EE048091E1008E7F8093E1008091E20077
:105160008E7F8093E2008091E20080618093E20074
:1051700042E060E080E00E9470058091F00088606D
:105180008093F00083EE96E00E943504FF91EF914A
:10519000BF91AF919F918F917F916F915F914F914F
:1051A0003F912F910F900FBE0F901F901895109266
:1051B000DF048091DE04882309F43BCF8091ED0465
:1051C0008430C1F49091E9009F702091EC00822F0F
:1051D000817020FD80E8892B93E09093E900909105
:1051E000EB0090FF04C09091EE0097FD08C08F7017
:1051F0008093E9001092DE041CCF1092F100909190
:10520000E80095FDFACF9091E80090FFF0CF9091E3
:10521000E8009E779093E800EACF19BC1092ED0465
:1052200087ED96E00E9435041092E0042ECF809125
:10523000E30087FD93E09093ED0473CF78941F9281
:105240001FB61F9211248F939F93AF93BF938091AA
:10525000D6049091D704A091D804B091D9040196B6
:10526000A11DB11D8093D6049093D704A093D804B8
:10527000B093D904BF91AF919F918F911F901FBEA2
:105280001F9018951F921FB61F9211248F939F9302
:10529000AF93BF938091D504811113C08091D60440
:1052A0009091D704A091D804B091D9044196A11D42
:1052B000B11D8093D6049093D704A093D804B093E3
:1052C000D904BF91AF919F918F911F901FBE1F90E6
:1052D0001895CDB7DEB72F970FB6F894DEBF0FBE87
:1052E000CDBF85B7806885BF85B7806885BF84B727
:1052F000877F84BF0FB6F894A8958091600088617D
:1053000080936000109260000FBE80E890E00FB6BE
:10531000F89480936100909361000FBE84EE93E156
:105320009093F7028093F6020E94D7040E94A20590
:105330008091E20084608093E20078948091ED0493
:105340008823A1F01091E9001F709091EC00892F43
:10535000817090FD80E8182B1092E9008091E800A0
:1053600083FD0E941D191F701093E90082E084BD27
:1053700093E095BD9AEF97BD80936E0010929C03C9
:1053800010929D0310929E0310929F0355985D9872
:105390008FE891E00197F1F700C000000E94BE0A7B
:1053A00080933B010E94161581110E949E2E8091D0
:1053B0003B0181112CC085E0E6E5F1E0DE011796A6
:1053C00001900D928A95E1F78F818093360188854F
:1053D000809337018985809338018A8580933901CC
:1053E0008B8580933A0186E0EBE5F1E0DE011196D2
:1053F00001900D928A95E1F7FE013196A0E3B1E0AC
:10540000CE01079621912D93E817F907D9F78091DE
:105410003B0195E0811190E09093AB0385E0891BFF
:105420008093AA0306E311E0D8018D918D018F3F8F
:1054300011F00E94F50FB1E00B331B07A9F700E351
:1054400011E0F80181918F018F3F11F00E94F50F5B
:10545000F1E006331F07A9F78AE0E2EBF3E0DF0192
:10546000282F1D922A95E9F7E0EAF3E0DF011D926B
:105470008A95E9F790E080E00E94CA30883E9E4F0E
:1054800011F00E94EE1E82E090E00E94C2308093F4
:105490002A050E9460169093AD038093AC0383E0CD
:1054A00090E00E94C23090E00E940A191092FB0422
:1054B0008FEF9FEF90931505809314059093170538
:1054C00080931605909319058093180590931B05FA
:1054D00080931A0590931D0580931C0590931F05DA
:1054E00080931E05909321058093200590932305BA
:1054F000809322051092D5039093EF038093EE03DF
:105500009093F1038093F0039093F3038093F2035D
:105510009093F5038093F4039093F7038093F6033D
:105520009093F9038093F8039093FB038093FA031D
:105530009093FD038093FC0390E080E00E94CA30CA
:10554000883E9E4F81F080912A0580FF08C089E443
:1055500095E09F938F930E94CE040F900F900E942E
:10556000EE1E0E94341646E050E06CE170E08BE2E3
:1055700095E00E94B2301092290580912B058C7F16
:1055800071F480912A0580FF08C084EF94E09F9316
:105590008F930E94CE040F900F900E94341680913A
:1055A0002A0580FF89C08AED94E09F938F930E9423
:1055B000CE0480912A050F900F9080FF7DC08091CE
:1055C0002B0583701F928F938BEB94E09F938F93A7
:1055D0000E94CE0480912A050F900F900F900F909B
:1055E00080FF6AC080912B05869586951F928F93C8
:1055F0008EE994E09F938F930E94CE0480912A05B8
:105600000F900F900F900F9080FF56C080912C0547
:105610001F928F9380E894E09F938F930E94CE0413
:1056200080912A050F900F900F900F9080FF44C03B
:1056300080912D051F928F9382E694E09F938F9324
:105640000E94CE0480912A050F900F900F900F902A
:1056500080FF32C080912E051F928F9384E494E0E6
:105660009F938F930E94CE0480912A050F900F90F4
:105670000F900F9080FF20C080912F051F928F9375
:1056800086E294E09F938F930E94CE0480912A0536
:105690000F900F900F900F9080FF0EC080913005FB
:1056A0001F928F9388E094E09F938F930E94CE0483
:1056B0000F900F900F900F9080913B0192E081111D
:1056C00090E09093CE0382E0F82FF91BF093AF03A4
:1056D00090913B018093CF0390913B018093AE0367
:1056E00080913B0181110CC083E380934A0182E3E6
:1056F0008093480186EF80934B0187EF80934901A7
:105700002AE4A22E21E0B22E48E451E08A0195015C
:1057100061E070E0D9018D919D01E82FE295EF7075
:10572000F0E0D1A08F707B0101C0EE0C8A95EAF702
:105730009E2D90959D2191A382A18E2982A3F8018F
:1057400081918F01E82FE295EF70F0E0D1A08F708A
:105750007B0101C0EE0C8A95EAF79E2D90959D2164
:1057600091A382A18E2982A3AC54B14099F68FE80F
:1057700091E00197F1F700C000001091CF0360EDB8
:1057800073E0FB018E2F861B811708F4DFC00E9497
:105790001615811102C00E94A12E8CE391E0909316
:1057A000D2048093D1048091ED048530A9F48BE775
:1057B00095E00E94350490E4F92EEE24E39400E194
:1057C00012E18091ED04853009F4E9C00E941119BD
:1057D0000E943915109202040E946E168CEB282E3E
:1057E00083E0382E82EB93E09E878D87DC01F10108
:1057F00091918D9126EC33E02E173F0709F416C1E5
:105800009817B1F380912A0581FD6DC10E9416158C
:105810008F870DEE802E01E0902EE12CAD85BE85A8
:10582000DD90BE87AD87F10161901F016D1409F411
:1058300083C06D242401C12C77247394872D862185
:1058400009F46FC0F72CFD20FF85FF2399F0CF826C
:10585000E88681E0F11001C080E089870E947B0624
:105860008160782F9B878A874F81588569858B85D2
:105870000E942627FF2041F0D2018C91F12C8F3F0E
:1058800019F08C87FF24F3940F2D10E08091D5033D
:10589000800F912F911D09976CF1E8E0AE2EB12C8D
:1058A000A01AB10AB8016A527C4FA50186ED93E0B7
:1058B0000E941131B80162527C4FA5018EED93E038
:1058C0000E941131A501440F551FB801660F771FC3
:1058D00062517C4F8EEE93E00E941131B8016A5103
:1058E0007C4FA50186EE93E00E94113188E08F196C
:1058F0008093D5038091D50390E0EC85AE2FB0E086
:105900009D01220F331F275D3D4FAA0FBB1FBD0115
:10591000665D7D4F41E0480F9F1508F41AC18093E2
:10592000D503C394770CEFEF4E1A5E0AF6E0CF1260
:1059300085CFF1013197D082E39426E0820E911C4D
:105940003AE0E3126BCF0E946F0690C0D5012D9113
:105950005D01822F82958F7090E0DC0190968C9192
:1059600090E02F7002C0959587952A95E2F7817097
:10597000DA019D91AD01292F22952F7030E0D901D8
:1059800090962C9130E09F7002C0359527959A959E
:10599000E2F790E020FD92E0892B8193F3CE809195
:1059A000ED04843009F430C00E9485158091020412
:1059B000811105C00E94B50D80E00E94E906E092C9
:1059C00002041092D504E8E1F0E00FB6F894A8952F
:1059D000E09360000FBEF092600083B7817F846027
:1059E00083BF83B7816083BF7894889583B78E7FA8
:1059F00083BF0FB6F894A89580916000886180936A
:105A00006000109260000FBE8091EC04882309F4BE
:105A1000D8CE0E946E16E2EBF3E08191811120C195
:105A20002CEB33E02E173F07C1F7CBCE9813EACE0D
:105A30000E947B068C018091B0039091B1030817FE
:105A40001907A1F08FEF89838A831B820E947B064E
:105A50008160782F9D838C8349815A816B818D81F0
:105A60000E9426271093B1030093B0030E941615DD
:105A70000E948515E12CD12C8091CF03E81608F403
:105A80007EC0D1100E94EA110E943915182F809112
:105A9000D403181709F487CE1093D4030E946F061D
:105AA00080912A0582FF7FCE80FF7DCE84EA95E03B
:105AB0000E94350480912A0580FF75CE1F921F93A6
:105AC0008FE995E09F938F930E94CE0480912A05E1
:105AD0000F900F900F900F9080FF65CE8DE995E0AD
